{
  "_format": "hh-sol-artifact-1",
  "contractName": "Edunation",
  "sourceName": "contracts/Edunation.sol",
  "abi": [
    {
      "inputs": [
        {
          "internalType": "address",
          "name": "_owner",
          "type": "address"
        }
      ],
      "stateMutability": "nonpayable",
      "type": "constructor"
    },
    {
      "anonymous": false,
      "inputs": [
        {
          "indexed": false,
          "internalType": "address",
          "name": "performer",
          "type": "address"
        },
        {
          "indexed": false,
          "internalType": "enum Edunation.trxType",
          "name": "transectionType",
          "type": "uint8"
        },
        {
          "indexed": false,
          "internalType": "uint256",
          "name": "amount",
          "type": "uint256"
        }
      ],
      "name": "newTransection",
      "type": "event"
    },
    {
      "inputs": [],
      "name": "availableBalance",
      "outputs": [
        {
          "internalType": "uint256",
          "name": "",
          "type": "uint256"
        }
      ],
      "stateMutability": "view",
      "type": "function"
    },
    {
      "inputs": [
        {
          "internalType": "string",
          "name": "_name",
          "type": "string"
        },
        {
          "internalType": "string",
          "name": "_img",
          "type": "string"
        },
        {
          "internalType": "string",
          "name": "_message",
          "type": "string"
        }
      ],
      "name": "donate",
      "outputs": [],
      "stateMutability": "payable",
      "type": "function"
    },
    {
      "inputs": [],
      "name": "owner",
      "outputs": [
        {
          "internalType": "address",
          "name": "",
          "type": "address"
        }
      ],
      "stateMutability": "view",
      "type": "function"
    },
    {
      "inputs": [],
      "name": "recentTransactions",
      "outputs": [
        {
          "components": [
            {
              "internalType": "enum Edunation.trxType",
              "name": "transectionType",
              "type": "uint8"
            },
            {
              "internalType": "string",
              "name": "message",
              "type": "string"
            },
            {
              "internalType": "uint72",
              "name": "amount",
              "type": "uint72"
            },
            {
              "internalType": "address",
              "name": "performer",
              "type": "address"
            }
          ],
          "internalType": "struct Edunation.Trx[10]",
          "name": "",
          "type": "tuple[10]"
        }
      ],
      "stateMutability": "view",
      "type": "function"
    },
    {
      "inputs": [],
      "name": "topDonor",
      "outputs": [
        {
          "internalType": "string",
          "name": "name",
          "type": "string"
        },
        {
          "internalType": "address",
          "name": "account",
          "type": "address"
        },
        {
          "internalType": "uint72",
          "name": "amount",
          "type": "uint72"
        },
        {
          "internalType": "string",
          "name": "img",
          "type": "string"
        }
      ],
      "stateMutability": "view",
      "type": "function"
    },
    {
      "inputs": [],
      "name": "trxCount",
      "outputs": [
        {
          "internalType": "uint8",
          "name": "",
          "type": "uint8"
        }
      ],
      "stateMutability": "view",
      "type": "function"
    },
    {
      "inputs": [
        {
          "internalType": "uint256",
          "name": "_amount",
          "type": "uint256"
        },
        {
          "internalType": "string",
          "name": "_message",
          "type": "string"
        }
      ],
      "name": "withdraw",
      "outputs": [],
      "stateMutability": "nonpayable",
      "type": "function"
    }
  ],
  "bytecode": "0x60a06040523480156200001157600080fd5b506040516200195c3803806200195c8339818101604052810190620000379190620000dc565b8073ffffffffffffffffffffffffffffffffffffffff1660808173ffffffffffffffffffffffffffffffffffffffff1681525050506200010e565b600080fd5b600073ffffffffffffffffffffffffffffffffffffffff82169050919050565b6000620000a48262000077565b9050919050565b620000b68162000097565b8114620000c257600080fd5b50565b600081519050620000d681620000ab565b92915050565b600060208284031215620000f557620000f462000072565b5b60006200010584828501620000c5565b91505092915050565b60805161182462000138600039600081816106e10152818161070d015261085801526118246000f3fe6080604052600436106100705760003560e01c80638bf206491161004e5780638bf20649146100f95780638da5cb5b14610115578063ab2f0e5114610140578063dc048cf21461016b57610070565b80634ede645e146100755780636bc5a8ae146100a05780637d2674f1146100ce575b600080fd5b34801561008157600080fd5b5061008a610194565b604051610097919061110f565b60405180910390f35b3480156100ac57600080fd5b506100b561033e565b6040516100c59493929190611199565b60405180910390f35b3480156100da57600080fd5b506100e36104a1565b6040516100f09190611208565b60405180910390f35b610113600480360381019061010e919061136c565b6104b4565b005b34801561012157600080fd5b5061012a6106df565b6040516101379190611413565b60405180910390f35b34801561014c57600080fd5b50610155610703565b6040516101629190611447565b60405180910390f35b34801561017757600080fd5b50610192600480360381019061018d919061148e565b61070b565b005b61019c610cc8565b6000600a80602002604051908101604052809291906000905b82821015610335578382600302016040518060800160405290816000820160009054906101000a900460ff1660018111156101f3576101f2610ea1565b5b600181111561020557610204610ea1565b5b815260200160018201805461021990611519565b80601f016020809104026020016040519081016040528092919081815260200182805461024590611519565b80156102925780601f1061026757610100808354040283529160200191610292565b820191906000526020600020905b81548152906001019060200180831161027557829003601f168201915b505050505081526020016002820160009054906101000a900468ffffffffffffffffff1668ffffffffffffffffff1668ffffffffffffffffff1681526020016002820160099054906101000a900473ffffffffffffffffffffffffffffffffffffffff1673ffffffffffffffffffffffffffffffffffffffff1673ffffffffffffffffffffffffffffffffffffffff1681525050815260200190600101906101b5565b50505050905090565b601f80600001805461034f90611519565b80601f016020809104026020016040519081016040528092919081815260200182805461037b90611519565b80156103c85780601f1061039d576101008083540402835291602001916103c8565b820191906000526020600020905b8154815290600101906020018083116103ab57829003601f168201915b5050505050908060010160009054906101000a900473ffffffffffffffffffffffffffffffffffffffff16908060010160149054906101000a900468ffffffffffffffffff169080600201805461041e90611519565b80601f016020809104026020016040519081016040528092919081815260200182805461044a90611519565b80156104975780601f1061046c57610100808354040283529160200191610497565b820191906000526020600020905b81548152906001019060200180831161047a57829003601f168201915b5050505050905084565b601e60009054906101000a900460ff1681565b662386f26fc100003410156104fe576040517f08c379a00000000000000000000000000000000000000000000000000000000081526004016104f5906115bd565b60405180910390fd5b601f60010160149054906101000a900468ffffffffffffffffff1668ffffffffffffffffff1634111561062b57600060405180608001604052808581526020013373ffffffffffffffffffffffffffffffffffffffff1681526020013468ffffffffffffffffff16815260200184815250905080601f6000820151816000019080519060200190610590929190610cf6565b5060208201518160010160006101000a81548173ffffffffffffffffffffffffffffffffffffffff021916908373ffffffffffffffffffffffffffffffffffffffff16021790555060408201518160010160146101000a81548168ffffffffffffffffff021916908368ffffffffffffffffff1602179055506060820151816002019080519060200190610625929190610cf6565b50905050505b61063860008234336108fd565b600a601e60009054906101000a900460ff1660ff161061066757601e60009054906101000a900460ff16610684565b6001601e60009054906101000a900460ff16610683919061160c565b5b601e60006101000a81548160ff021916908360ff1602179055507f4ce055526b78f1d856f258da288b5787eafe9f68f2f309e62a828cb6da4391b3336000346040516106d293929190611652565b60405180910390a1505050565b7f000000000000000000000000000000000000000000000000000000000000000081565b600047905090565b7f000000000000000000000000000000000000000000000000000000000000000073ffffffffffffffffffffffffffffffffffffffff163373ffffffffffffffffffffffffffffffffffffffff1614610799576040517f08c379a0000000000000000000000000000000000000000000000000000000008152600401610790906116d5565b60405180910390fd5b6107a1610703565b8211156107e3576040517f08c379a00000000000000000000000000000000000000000000000000000000081526004016107da90611741565b60405180910390fd5b6107f060018284336108fd565b600a601e60009054906101000a900460ff1660ff161061081f57601e60009054906101000a900460ff1661083c565b6001601e60009054906101000a900460ff1661083b919061160c565b5b601e60006101000a81548160ff021916908360ff1602179055507f000000000000000000000000000000000000000000000000000000000000000073ffffffffffffffffffffffffffffffffffffffff166108fc839081150290604051600060405180830381858888f193505050501580156108bc573d6000803e3d6000fd5b507f4ce055526b78f1d856f258da288b5787eafe9f68f2f309e62a828cb6da4391b3336001846040516108f193929190611652565b60405180910390a15050565b6000604051806080016040528086600181111561091d5761091c610ea1565b5b81526020018581526020018468ffffffffffffffffff1681526020018373ffffffffffffffffffffffffffffffffffffffff168152509050600a601e60009054906101000a900460ff1660ff161415610bcd576000600190505b600a8160ff161015610ae55760008160ff16600a811061099a57610999611761565b5b6003020160006001836109ad9190611790565b60ff16600a81106109c1576109c0611761565b5b600302016000820160009054906101000a900460ff168160000160006101000a81548160ff021916908360018111156109fd576109fc610ea1565b5b02179055506001820181600101908054610a1690611519565b610a21929190610d7c565b506002820160009054906101000a900468ffffffffffffffffff168160020160006101000a81548168ffffffffffffffffff021916908368ffffffffffffffffff1602179055506002820160099054906101000a900473ffffffffffffffffffffffffffffffffffffffff168160020160096101000a81548173ffffffffffffffffffffffffffffffffffffffff021916908373ffffffffffffffffffffffffffffffffffffffff1602179055509050508080610add906117c4565b915050610977565b508060006009600a8110610afc57610afb611761565b5b6003020160008201518160000160006101000a81548160ff02191690836001811115610b2b57610b2a610ea1565b5b02179055506020820151816001019080519060200190610b4c929190610cf6565b5060408201518160020160006101000a81548168ffffffffffffffffff021916908368ffffffffffffffffff16021790555060608201518160020160096101000a81548173ffffffffffffffffffffffffffffffffffffffff021916908373ffffffffffffffffffffffffffffffffffffffff160217905550905050610cc1565b806000601e60009054906101000a900460ff1660ff16600a8110610bf457610bf3611761565b5b6003020160008201518160000160006101000a81548160ff02191690836001811115610c2357610c22610ea1565b5b02179055506020820151816001019080519060200190610c44929190610cf6565b5060408201518160020160006101000a81548168ffffffffffffffffff021916908368ffffffffffffffffff16021790555060608201518160020160096101000a81548173ffffffffffffffffffffffffffffffffffffffff021916908373ffffffffffffffffffffffffffffffffffffffff1602179055509050505b5050505050565b604051806101400160405280600a905b610ce0610e09565b815260200190600190039081610cd85790505090565b828054610d0290611519565b90600052602060002090601f016020900481019282610d245760008555610d6b565b82601f10610d3d57805160ff1916838001178555610d6b565b82800160010185558215610d6b579182015b82811115610d6a578251825591602001919060010190610d4f565b5b509050610d789190610e64565b5090565b828054610d8890611519565b90600052602060002090601f016020900481019282610daa5760008555610df8565b82601f10610dbb5780548555610df8565b82800160010185558215610df857600052602060002091601f016020900482015b82811115610df7578254825591600101919060010190610ddc565b5b509050610e059190610e64565b5090565b604051806080016040528060006001811115610e2857610e27610ea1565b5b815260200160608152602001600068ffffffffffffffffff168152602001600073ffffffffffffffffffffffffffffffffffffffff1681525090565b5b80821115610e7d576000816000905550600101610e65565b5090565b6000600a9050919050565b600081905092915050565b6000819050919050565b7f4e487b7100000000000000000000000000000000000000000000000000000000600052602160045260246000fd5b60028110610ee157610ee0610ea1565b5b50565b6000819050610ef282610ed0565b919050565b6000610f0282610ee4565b9050919050565b610f1281610ef7565b82525050565b600081519050919050565b600082825260208201905092915050565b60005b83811015610f52578082015181840152602081019050610f37565b83811115610f61576000848401525b50505050565b6000601f19601f8301169050919050565b6000610f8382610f18565b610f8d8185610f23565b9350610f9d818560208601610f34565b610fa681610f67565b840191505092915050565b600068ffffffffffffffffff82169050919050565b610fcf81610fb1565b82525050565b600073ffffffffffffffffffffffffffffffffffffffff82169050919050565b600061100082610fd5565b9050919050565b61101081610ff5565b82525050565b600060808301600083015161102e6000860182610f09565b50602083015184820360208601526110468282610f78565b915050604083015161105b6040860182610fc6565b50606083015161106e6060860182611007565b508091505092915050565b60006110858383611016565b905092915050565b6000602082019050919050565b60006110a582610e81565b6110af8185610e8c565b9350836020820285016110c185610e97565b8060005b858110156110fd57848403895281516110de8582611079565b94506110e98361108d565b925060208a019950506001810190506110c5565b50829750879550505050505092915050565b60006020820190508181036000830152611129818461109a565b905092915050565b600082825260208201905092915050565b600061114d82610f18565b6111578185611131565b9350611167818560208601610f34565b61117081610f67565b840191505092915050565b61118481610ff5565b82525050565b61119381610fb1565b82525050565b600060808201905081810360008301526111b38187611142565b90506111c2602083018661117b565b6111cf604083018561118a565b81810360608301526111e18184611142565b905095945050505050565b600060ff82169050919050565b611202816111ec565b82525050565b600060208201905061121d60008301846111f9565b92915050565b6000604051905090565b600080fd5b600080fd5b600080fd5b600080fd5b7f4e487b7100000000000000000000000000000000000000000000000000000000600052604160045260246000fd5b61127982610f67565b810181811067ffffffffffffffff8211171561129857611297611241565b5b80604052505050565b60006112ab611223565b90506112b78282611270565b919050565b600067ffffffffffffffff8211156112d7576112d6611241565b5b6112e082610f67565b9050602081019050919050565b82818337600083830152505050565b600061130f61130a846112bc565b6112a1565b90508281526020810184848401111561132b5761132a61123c565b5b6113368482856112ed565b509392505050565b600082601f83011261135357611352611237565b5b81356113638482602086016112fc565b91505092915050565b6000806000606084860312156113855761138461122d565b5b600084013567ffffffffffffffff8111156113a3576113a2611232565b5b6113af8682870161133e565b935050602084013567ffffffffffffffff8111156113d0576113cf611232565b5b6113dc8682870161133e565b925050604084013567ffffffffffffffff8111156113fd576113fc611232565b5b6114098682870161133e565b9150509250925092565b6000602082019050611428600083018461117b565b92915050565b6000819050919050565b6114418161142e565b82525050565b600060208201905061145c6000830184611438565b92915050565b61146b8161142e565b811461147657600080fd5b50565b60008135905061148881611462565b92915050565b600080604083850312156114a5576114a461122d565b5b60006114b385828601611479565b925050602083013567ffffffffffffffff8111156114d4576114d3611232565b5b6114e08582860161133e565b9150509250929050565b7f4e487b7100000000000000000000000000000000000000000000000000000000600052602260045260246000fd5b6000600282049050600182168061153157607f821691505b60208210811415611545576115446114ea565b5b50919050565b7f6d696e696d756d20616d6f756e7420746f20646f6e61746520697320302e303160008201527f2065746800000000000000000000000000000000000000000000000000000000602082015250565b60006115a7602483611131565b91506115b28261154b565b604082019050919050565b600060208201905081810360008301526115d68161159a565b9050919050565b7f4e487b7100000000000000000000000000000000000000000000000000000000600052601160045260246000fd5b6000611617826111ec565b9150611622836111ec565b92508260ff03821115611638576116376115dd565b5b828201905092915050565b61164c81610ef7565b82525050565b6000606082019050611667600083018661117b565b6116746020830185611643565b6116816040830184611438565b949350505050565b7f6f6e6c79206f776e65722063616e207769746864726177206574686572730000600082015250565b60006116bf601e83611131565b91506116ca82611689565b602082019050919050565b600060208201905081810360008301526116ee816116b2565b9050919050565b7f6e6f7420656e6f7567682062616c616e636520746f2077697468647261770000600082015250565b600061172b601e83611131565b9150611736826116f5565b602082019050919050565b6000602082019050818103600083015261175a8161171e565b9050919050565b7f4e487b7100000000000000000000000000000000000000000000000000000000600052603260045260246000fd5b600061179b826111ec565b91506117a6836111ec565b9250828210156117b9576117b86115dd565b5b828203905092915050565b60006117cf826111ec565b915060ff8214156117e3576117e26115dd565b5b60018201905091905056fea2646970667358221220bb5ca23bb0285a068e33dc30afd891f0dfb3498f37e35fc3e6961d69038ca5e464736f6c634300080a0033",
  "linkReferences": {},
  "deployedLinkReferences": {}
}